:04000000D0EF03F04A
:10060000003132333435363738392A3023FF3F064C
:100610005B4F666D7D077F6F0000000E046E010E5C
:10062000056E4FD051D005C003F0010E03168B505C
:100630000318FE0B03188B6E05C003F0D89003322D
:10064000010E031603468B500318FD0B03188B6E27
:1006500005C003F0D8900332D8900332010E031680
:10066000034603468B500318FB0B03188B6E05C023
:1006700003F0D8900332D8900332D8900332010EA1
:1006800003160346034603468B500318F70B031863
:100690008B6E030E036E980EE82EFED7032EFCD74A
:1006A00082BE12D001D010D0042A82BA0DD001D05F
:1006B0000BD0042A82BC08D001D006D0042AD890DE
:1006C00005360F0E0564AFD78B908B928B948B966B
:1006D00009500418D8B40CD004C009F00450010D1E
:1006E000010EF324F66E060EF420F76E05D009D045
:1006F0000D0EF66E060EF76E0800F550016E026ADA
:1007000000D01200056E000E896E3A0E056004D00E
:10071000300E056010D000D02A0E0518D8A402D0E3
:10072000770E07D0230E0518D8A402D0760E01D07C
:10073000000E896E15D0D00E016EFF0E026E0550B0
:10074000036E046A01500326025004220E0E032495
:10075000F66E060E0420F76E0800F5CF89FF00D074
:100760001200300E066EC6EC03F000D00DEC03F064
:100770000150076E0728D8B403D007C006F000D098
:10078000065082EC03F0F2D700EF00F0000E826E0C
:10079000000E8B6EF00E946EF18E000E926E1200B3
:1007A000096A086A000EF86E060EF76E0001B1EFD6
:0207B00003F054
:020000040020DA
:08000000FFFFFFFFFFFFFFFF00
:020000040030CA
:0E000000FF08191EFF0285FF0FC00FE00F4022
:00000001FF
