:0400000090EF15F078
:1006000000010000000A00000064000000E8030090
:100610000010270000A086010040420F008096983D
:100620000000E1F50500CA9A3B00803FCDCC3DD7E4
:10063000233C12833AB7D138C62737388635C0D61F
:1006400033CC2B32708930E7DB2EE53C1E42A20D05
:1006500000803F00204100C842007A44401C4650C0
:10066000C34724744997184BBCBE4C6B6E4E0315A0
:100670005079AD60F349714C434420646973706CE8
:10068000617900566F6C746167653D2000252E33DB
:1006900067004144430000004E0E0001636F000EEE
:1006A0000001646FE8EF0AF0250E00017919D8B453
:1006B00007D04AC0D9FF4BC0DAFF79C0DFFFBDD3F6
:1006C000000E0001696F000E686F4CC0F6FF4DC050
:1006D000F7FF0800F5502E0AD8A434D00001698D28
:1006E0004C4A4D2A000E0001756F000E746F1ED02B
:1006F00074C00FF075C010F0000E126E0A0E116E6D
:1007000046EC15F04CC0F6FF4DC0F7FF0800F55061
:100710000F26000E1022D00E0F240001746FFF0E62
:1007200010200001756F4C4A4D2A00D04CC0F6FFD6
:100730004DC0F7FF0800F5507FEC15F0D8A012D09F
:10074000D7D710D0000E0001756F000E746F000136
:10075000698908D0F8EF0AF00001698317D0E8EF43
:100760000AF014D04CC0F6FF4DC0F7FF4C4A4D2A9A
:100770000800F5CF79F000017951000AD8B4F8EFFC
:100780000AF0670AD8B4E8D7E8EF0AF0070E0001CC
:100790006915D8B497EF0AF0000169A906D0000ED8
:1007A0000001756F060E746F00D063C0D9FF64C07E
:1007B000DAFFDECF76F0DECF77F0DDCF78F0030E14
:1007C00000016327000E6423000178AF12D076C0C9
:1007D00019F077C01AF078C01BF06DEC15F019C055
:1007E00076F01AC077F01BC078F0030E0001681392
:1007F00000D0000E0001736F000E726F0001765181
:100800000001771100017811D8B48DD0820E516E9D
:10081000FF0E526E76C053F077C054F078C055F09A
:1008200079C056F0100E05D0D89056325532543259
:100830005332E82EF9D7535051240001726F000E45
:1008400052200001736F00017207D8A0730772C0B5
:100850000FF073C010F0000E126E030E116E46EC16
:1008600015F00FC072F010C073F072C007F073C0C3
:1008700008F0000E0A6E0A0E096EB3EC12F007C003
:1008800072F008C073F0000173AF05D00001720769
:10089000D8A0730700D000017251000800EC0BF0E3
:1008A0002BC06AF02CC06BF02DC06CF06AC01CF03D
:1008B0006BC01DF06CC01EF076C01FF077C020F03A
:1008C00078C021F095EC10F01CC06AF01DC06BF0F0
:1008D0001EC06CF06AC041F06BC042F06CC043F0C7
:1008E000000E446E800E456E3F0E466EFEEC12F01A
:1008F000D8B005D000017207D8A0730714D06AC021
:1009000041F06BC042F06CC043F0000E446E200E0C
:10091000456E410E466EFEEC12F0D8A004D00001E8
:10092000724B732B00D0000173BF07D000017351CD
:1009300008E100017205D8B004D0010E0001796F02
:1009400002D072C079F0000169A37AD2000173AFBE
:1009500008D0FC0E0001725DFF0E00017359D8A093
:100960000ED0000174510001725D00017351800AC4
:10097000516E00017551800A5158D8A061D2000112
:10098000745100017511D8B408D0000169A305D0D5
:1009900000017407D8A0750700D00001755105E16A
:1009A000090E0001745DD8A004D0080E0001796F13
:1009B00003D074C079F000D00001765100017711A6
:1009C00000017811D8B4E3D076C032F077C033F0AC
:1009D00078C034F00001795100080001722500EC64
:1009E0000BF02BC035F02CC036F02DC037F084EC66
:1009F00011F032C076F033C077F034C078F076C0B2
:100A000038F077C039F078C03AF076C001F077C09E
:100A100002F078C003F011EC11F001C010F002C038
:100A200011F003C012F004C013F008EC14F010C071
:100A300019F011C01AF012C01BF06DEC15F019C0BE
:100A400035F01AC036F01BC037F012EC0EF035C08E
:100A500041F036C042F037C043F0000E446E000E45
:100A6000456E3F0E466EFEEC12F0D8A015D076C053
:100A700035F077C036F078C037F0000E386E000ED3
:100A8000396E3F0E3A6E12EC0EF035C076F036C07D
:100A900077F037C078F000D079C051F0526A51BE7B
:100AA0005206D89051365236D89051365236040EEE
:100AB0005126000E5222010E5124F66E060E5220CF
:100AC000F76E76C001F077C002F078C003F011EC49
:100AD00011F00900F550015C0900F55002580900B9
:100AE000F55003580900F5500458D8A018D076C026
:100AF0001CF077C01DF078C01EF0CD0E1F6ECC0E1E
:100B0000206E3D0E216E95EC10F01CC076F01DC0DD
:100B100077F01EC078F00001724B732B38D00001C3
:100B20007951040D010EF324F66E060EF420F76ED3
:100B300076C001F077C002F078C003F011EC11F03C
:100B40000900F550015C0900F55002580900F55004
:100B500003580900F5500458D8B019D076C01CF0DD
:100B600077C01DF078C01EF0000E1F6E200E206EA4
:100B7000410E216E95EC10F01CC076F01DC077F090
:100B80001EC078F000017207D8A0730700D0030ED2
:100B900000016815516E000E00016915526E51502A
:100BA0005210D8B409D04AC0D9FF4BC0DAFF2D0E7D
:100BB000DF6E4A4A4B2A00D076C001F077C002F0BF
:100BC00078C003F011EC11F001C06EF002C06FF0BC
:100BD00003C070F004C071F06EC001F06FC002F08D
:100BE00070C003F071C004F000017951040D010ED2
:100BF000F324F66E060EF420F76E0900F5CF05F02B
:100C00000900F5CF06F00900F5CF07F00A00F5CF8F
:100C100008F049EC13F00150300F4AC0D9FF4BC027
:100C2000DAFFDF6E4A4A4B2A6EC001F06FC002F055
:100C300070C003F071C004F000017951040D010E81
:100C4000F324F66E060EF420F76E0900F5CF05F0DA
:100C50000900F5CF06F00900F5CF07F00A00F5CF3F
:100C600008F0D0EC13F001C06EF002C06FF003C0CA
:100C700070F004C071F00001745100017511D8B416
:100C800098D04AC0D9FF4BC0DAFF2E0EDF6E4A4A19
:100C90004B2A000179510001745F000E000179BFF9
:100CA000FF0E0001755B68D0000169A315D000013B
:100CB0006E5100016F110001701100017111D8A473
:100CC0000BD0000E0001796F000179510001746FA3
:100CD000756B74BF750765D06EC001F06FC002F010
:100CE00070C003F071C004F000017951040D010ED1
:100CF000F324F66E060EF420F76E0900F5CF05F02A
:100D00000900F5CF06F00900F5CF07F00A00F5CF8E
:100D100008F049EC13F00150300F4AC0D9FF4BC026
:100D2000DAFFDF6E4A4A4B2A6EC001F06FC002F054
:100D300070C003F071C004F000017951040D010E80
:100D4000F324F66E060EF420F76E0900F5CF05F0D9
:100D50000900F5CF06F00900F5CF07F00A00F5CF3E
:100D600008F0D0EC13F001C06EF002C06FF003C0C9
:100D700070F004C071F000D00001790700017929FA
:100D8000D8B40FD091D70DD04AC0D9FF4BC0DAFFED
:100D9000300EDF6E4A4A4B2A00017407D8A075074F
:100DA00000D00001745100017511D8B402D0ECD705
:100DB00000D04AC0D9FF4BC0DAFF650EDF6E4A4A49
:100DC0004B2A000173AF0ED00001726D731FD8B0B3
:100DD000732B4AC0D9FF4BC0DAFF2D0E08D04A4A08
:100DE0004B2A07D04AC0D9FF4BC0DAFF2B0EDF6E6B
:100DF000F6D772C007F073C008F0000E0A6E0A0E34
:100E0000096EB3EC12F00750300F4AC0D9FF4BC047
:100E1000DAFFDF6E4A4A4B2A72C001F073C002F05B
:100E2000000E046E0A0E036E8FEC13F00150300FAB
:100E30004AC0D9FF4BC0DAFFC8D34A4A4B2AC8D3AD
:100E4000000169A307D1000173AF0FD0010E0001AB
:100E50007225516E000E00017321526E5150000137
:100E6000745F52500001755B00D076C001F077C00E
:100E700002F078C003F011EC11F001C06EF002C076
:100E80006FF003C070F004C071F0000E0001796FC4
:100E90000A0E00017919D8B422D001D020D0000167
:100EA0007951040D010EF324F66E060EF420F76E50
:100EB0000900F55000016E5D0900F55000016F5901
:100EC0000900F550000170590900F55000017159F1
:100ED000D8A005D001D003D00001792BD9D70001CB
:100EE00079510001745F000E000179BFFF0E00010F
:100EF000755B000175BF08D0000175511DE10D0E35
:100F00000001745DD8B018D076C035F077C036F0E7
:100F100078C037F000017451F0EC0CF02BC038F0C1
:100F20002CC039F02DC03AF012EC0EF035C076F03E
:100F300036C077F037C078F00001745100EC0BF048
:100F40002BC065F02CC066F02DC067F065C01CF0AA
:100F500066C01DF067C01EF076C038F077C039F06B
:100F600078C03AF06EC010F06FC011F070C012F08F
:100F700071C013F008EC14F010C019F011C01AF091
:100F800012C01BF06DEC15F019C035F01AC036F028
:100F90001BC037F012EC0EF035C01FF036C020F049
:100FA00037C021F095EC10F01CC065F01DC066F054
:100FB0001EC067F065C001F066C002F067C003F0B4
:100FC00011EC11F001C06EF002C06FF003C070F0C0
:100FD00004C071F01FD06EC001F06FC002F070C08D
:100FE00003F071C004F00A0E056E000E066E000ECE
:100FF000076E000E086E49EC13F001C06EF002C0DF
:101000006FF003C070F004C071F000017407D8A045
:10101000750700D00001745100017511D8B43ED09D
:101020006EC001F06FC002F070C003F071C004F038
:101030000A0E056E000E066E000E076E000E086E9C
:10104000D0EC13F00150021003100410D8A426D0E5
:10105000C2D724D0000175BF08D0000175511EE130
:101060000D0E0001745DD8B019D076C035F077C090
:1010700036F078C037F000017451F0EC0CF02BC062
:1010800038F02CC039F02DC03AF012EC0EF035C01B
:1010900076F036C077F037C078F000D0000173BF2B
:1010A00008D00001735128E10A0E0001725DD8B02A
:1010B00023D0000176510001771100017811D8B4D6
:1010C00077D076C001F077C002F078C003F011EC61
:1010D00011F00150021003100410D8A469D00001CF
:1010E00073BF66D00001735107E1020E0001725D0B
:1010F000D8B002D05DD000D06AC041F06BC042F0E1
:101100006CC043F0700E446E890E456E400E466E04
:10111000FEEC12F0D8B003D00001F70E02D00001AF
:10112000F80E7227FF0E732300D00001725100ECFD
:101130000BF02BC06AF02CC06BF02DC06CF017D0F8
:1011400076C001F077C002F078C003F06AC004F006
:101150006BC005F06CC006F010EC10F001C06EF032
:1011600002C06FF003C070F004C071F017D076C0F9
:1011700001F077C002F078C003F06AC004F06BC0E1
:1011800005F06CC006F088EC0FF001C06EF002C0F4
:101190006FF003C070F004C071F000D0000E0001C9
:1011A000766F000E0001776F000E0001786F34D06B
:1011B00076C001F077C002F078C003F011EC11F0B6
:1011C00001C06EF002C06FF003C070F004C071F097
:1011D00076C041F077C042F078C043F06EC010F0A6
:1011E0006FC011F070C012F071C013F008EC14F071
:1011F00010C044F011C045F012C046F091EC14F05C
:1012000041C076F042C077F043C078F0000E000194
:10121000736F000E726F00D0010E0001796F0A0E1D
:1012200000017919D8B422D001D020D00001795121
:10123000040D010EF324F66E060EF420F76E09007D
:10124000F55000016E5D0900F55000016F5909006D
:10125000F550000170590900F55000017159D8A0EE
:1012600005D001D003D00001792BD9D7030E00019E
:101270006815516E000E00016915526E51505210E2
:10128000D8B453D04AC0D9FF4BC0DAFF2D0E4BD093
:101290004A4A4B2A4AD06EC001F06FC002F070C0BB
:1012A00003F071C004F000017951040D010EF32424
:1012B000F66E060EF420F76E0900F5CF05F0090072
:1012C000F5CF06F00900F5CF07F00A00F5CF08F0DA
:1012D00049EC13F001C06AF002C06BF003C06CF07F
:1012E00004C06DF06AC001F06BC002F06CC003F086
:1012F0006DC004F00A0E056E000E066E000E076E3D
:10130000000E086ED0EC13F001C06AF002C06BF062
:1013100003C06CF004C06DF000016A51300F4AC088
:10132000D9FF4BC0DAFFDF6EB3D7000179070001A8
:101330007929D8B40FD0AFD70DD04AC0D9FF4BC050
:10134000DAFF300EDF6E4A4A4B2A00017207D8A03E
:10135000730700D0000173BF07D000017351EDE1A6
:1013600000017205D8B0E9D7000175BF0CD00001AB
:10137000755105E1090E0001745DD8A004D0080E76
:101380000001796F03D074C079F000D00001795169
:101390000001745F000E000179BFFF0E0001755B54
:1013A000000179510001D8B409D04AC0D9FF4BC01F
:1013B000DAFF2E0EDF6E4A4A4B2A00D00001795127
:1013C00000EC0BF02BC060F02CC061F02DC062F07F
:1013D00076C01FF077C020F078C021F060C01CF00C
:1013E00061C01DF062C01EF095EC10F01CC001F051
:1013F0001DC002F01EC003F011EC11F001C06EF030
:1014000002C06FF003C070F004C071F073D06EC002
:1014100001F06FC002F070C003F071C004F0000171
:101420007951040D010EF324F66E060EF420F76ECA
:101430000900F5CF05F00900F5CF06F00900F5CF5A
:1014400007F00A00F5CF08F049EC13F001C06AF08C
:1014500002C06BF003C06CF004C06DF06AC001F014
:101460006BC002F06CC003F06DC004F00A0E056E94
:10147000000E066E000E076E000E086ED0EC13F024
:1014800001C06AF002C06BF003C06CF004C06DF0E4
:1014900000016A51300F4AC0D9FF4BC0DAFFDF6E3E
:1014A0004A4A4B2A6EC001F06FC002F070C003F0D0
:1014B00071C004F000017951040D010EF324F66EA1
:1014C000060EF420F76E0900F5CF05F00900F5CF00
:1014D00006F00900F5CF07F00A00F5CF08F0D0ECD0
:1014E00013F001C06EF002C06FF003C070F004C0D2
:1014F00071F000D00001790700017929D8B40FD02C
:1015000086D70DD04AC0D9FF4BC0DAFF300EDF6E50
:101510004A4A4B2A00017407D8A0750700D0000181
:10152000745100017511D8B453D0ECD751D00001DB
:10153000745100017511D8A40ED000016E51000144
:101540006F110001701100017111D8A404D00001C5
:10155000744B752B00D0800E000179BF7F0E516E49
:10156000000174510001795D00017551800A5158E4
:10157000D8B003D074C079F017D000017551800A3B
:10158000516E000179510001745D800E000179BF38
:101590007F0E5158D8B008D0000179510001746F06
:1015A000756B74BF750700D0030E00016815516E8E
:1015B000000E00016915526E51505210D8B408D077
:1015C0004AC0D9FF4BC0DAFF2D0EDF6E36D400D0F3
:1015D0004CC0F6FF4DC0F7FF4C4A4D2A0800F5CF2E
:1015E00079F000017951D8B403D054EF03F000D062
:1015F0004AC0D9FF4BC0DAFF000EDF6E00D01200E8
:10160000316E31AEEFD0316C3150800A120FD8A05C
:101610008DD0000E126E030E116E000E0A6E0A0EB1
:10162000096E000E046E640E036E3150016E026A84
:1016300001BE02068FEC13F001C007F002C008F0F3
:10164000B3EC12F0090E07240F6E000E0820106E86
:1016500046EC15F0290E0F24F66E060E1020F76EDC
:101660000900F5CF1FF00900F5CF20F00A00F5CFF3
:1016700021F0000E0A6E640E096E3150076E086A82
:1016800007BE0806B3EC12F0120E07240F6E000E10
:101690000820106E000E126E030E116E46EC15F04F
:1016A000290E0F24F66E060E1020F76E0900F5CFF6
:1016B0001CF00900F5CF1DF00A00F5CF1EF095ECE7
:1016C00010F01CC02EF01DC02FF01EC030F02EC038
:1016D0001CF02FC01DF030C01EF0000E126E030E65
:1016E000116E000E046E0A0E036E3150016E026A16
:1016F00001BE02068FEC13F001C00FF002C010F023
:1017000046EC15F0290E0F24F66E060E1020F76E2B
:101710000900F5CF1FF00900F5CF20F00A00F5CF42
:1017200021F095EC10F041D15AD154D03150800ABB
:10173000750FD8A04FD0000E0A6E0A0E096E3150F8
:10174000076E086A07BE0806B3EC12F0090E0724FC
:101750000F6E000E0820106E000E126E030E116E3A
:1017600046EC15F0290E0F24F66E060E1020F76ECB
:101770000900F5CF1CF00900F5CF1DF00A00F5CFE8
:101780001EF0000E126E030E116E000E046E0A0E95
:10179000036E3150016E026A01BE02068FEC13F037
:1017A00001C00FF002C010F046EC15F0290E0F2416
:1017B000F66E060E1020F76E0900F5CF1FF0090037
:1017C000F5CF20F00A00F5CF21F095EC10F0EDD028
:1017D00006D100D03150030D290EF324F66E060E0B
:1017E000F2D0FDD03150800A120FD8A08DD0000E5B
:1017F000126E030E116E000E0A6E0A0E096E000EB6
:10180000046E640E036E3150016E026A01BE020660
:101810008FEC13F001C007F002C008F0B3EC12F037
:10182000090E07240F6E000E0820106E46EC15F00E
:10183000500E0F24F66E060E1020F76E0900F5CF3D
:101840001FF00900F5CF20F00A00F5CF21F0000EBF
:101850000A6E640E096E3150076E086A07BE0806EC
:10186000B3EC12F0120E07240F6E000E0820106E5B
:10187000000E126E030E116E46EC15F0500E0F2482
:10188000F66E060E1020F76E0900F5CF1CF0090069
:10189000F5CF1DF00A00F5CF1EF095EC10F01CC03E
:1018A0002EF01DC02FF01EC030F02EC01CF02FC037
:1018B0001DF030C01EF0000E126E030E116E000EF1
:1018C000046E0A0E036E3150016E026A01BE0206FA
:1018D0008FEC13F001C00FF002C010F046EC15F0D1
:1018E000500E0F24F66E060E1020F76E0900F5CF8D
:1018F0001FF00900F5CF20F00A00F5CF21F095EC9C
:1019000010F053D06CD059D03150800A750FD8A048
:1019100054D0000E0A6E0A0E096E3150076E086A26
:1019200007BE0806B3EC12F0090E07240F6E000E76
:101930000820106E000E126E030E116E46EC15F0AC
:10194000500E0F24F66E060E1020F76E0900F5CF2C
:101950001CF00900F5CF1DF00A00F5CF1EF0000EB7
:10196000126E030E116E000E046E0A0E036E3150DD
:10197000016E026A01BE02068FEC13F001C00FF087
:1019800002C010F046EC15F0500E0F24F66E060E55
:101990001020F76E0900F5CF1FF00900F5CF20F0F9
:1019A0000A00F5CF21F095EC10F01CC02BF01DC003
:1019B0002CF01EC02DF013D000D03150030D500E6E
:1019C000F324F66E060EF420F76E0900F5CF2BF027
:1019D0000900F5CF2CF00A00F5CF2DF000D0120051
:1019E000346E6D0E34649BD0000E126E030E116EB9
:1019F000000E0A6E0A0E096E000E046E640E036E6F
:101A000034C001F0026A8FEC13F001C007F002C08D
:101A100008F0B3EC12F0090E07240F6E000E082038
:101A2000106E46EC15F0290E0F24F66E060E1020EF
:101A3000F76E0900F5CF1FF00900F5CF20F00A007E
:101A4000F5CF21F0000E0A6E640E096E34C007F067
:101A5000086AB3EC12F0120E07240F6E000E082075
:101A6000106E000E126E030E116E46EC15F0290E6C
:101A70000F24F66E060E1020F76E0900F5CF1CF04D
:101A80000900F5CF1DF00A00F5CF1EF095EC10F01F
:101A90001CC031F01DC032F01EC033F0000E126EBB
:101AA000030E116E000E046E0A0E036E34C001F0B8
:101AB000026A8FEC13F001C00FF002C010F046EC88
:101AC00015F0290E0F24F66E060E1020F76E090091
:101AD000F5CF1FF00900F5CF20F00A00F5CF21F077
:101AE00031C01CF032C01DF033C01EF095EC10F078
:101AF0001CC02EF01DC02FF01EC030F02EC01CF0F8
:101B00002FC01DF030C01EF0000E1F6E000E206EA4
:101B10003F0E216E95EC10F07DD083D062D00A0E7E
:101B200034645FD0000E126E030E116E000E046E50
:101B30000A0E036E34C001F0026A8FEC13F001C08C
:101B40000FF002C010F046EC15F0290E0F24F66ECF
:101B5000060E1020F76E0900F5CF1FF00900F5CF33
:101B600020F00A00F5CF21F0000E0A6E0A0E096E71
:101B700034C007F0086AB3EC12F0090E07240F6EA8
:101B8000000E0820106E000E126E030E116E46EC51
:101B900015F0290E0F24F66E060E1020F76E0900C0
:101BA000F5CF1CF00900F5CF1DF00A00F5CF1EF0AF
:101BB00095EC10F01CC031F01DC032F01EC033F0A7
:101BC00031C01CF032C01DF033C01EF0000E1F6E7D
:101BD000000E206E3F0E216E95EC10F01BD021D030
:101BE00000D03450030D290EF324F66E060EF420B7
:101BF000F76E0900F5CF1CF00900F5CF1DF00A00C3
:101C0000F5CF1EF0000E1F6E000E206E3F0E216EEF
:101C100095EC10F01CC02BF01DC02CF01EC02DF058
:101C200000D0120037C03BF03C6A3D6A36343B3688
:101C300001E33C803B50406E3AC03BF03C6A3D6A59
:101C400039343B3601E33C803B503F6E4050D8B4C2
:101C50000BD03F50405CD8B00ED0405000083F241D
:101C60003B6E180E3B6407D038C035F039C036F0F3
:101C70003AC037F0B8D03F50D8B40BD040503F5C9A
:101C8000D8B00ED03F50000840243B6E180E3B6485
:101C900007D035C035F036C036F037C037F0A3D0A6
:101CA000060E3E6E37AE02D03E8E00D03ABE3E8C5F
:101CB000368EFF0E3516FF0E3616000E3716398E8D
:101CC000FF0E3816FF0E3916000E3A163F50405CD4
:101CD000D8B01ED0D890383639363A363F06405004
:101CE0003F18D8B40FD03E063EC03BF0070E3B165F
:101CF000D8B408D0EFD706D0D89037323632353244
:101D0000402A00D03F504018D8B424D0F5D722D074
:101D100040503F5CD8B01ED0D89035363636373676
:101D2000400640503F18D8B40FD03E063EC03BF0AE
:101D3000070E3B16D8B408D0EFD706D0D8903A3269
:101D4000393238323F2A00D03F504018D8B402D040
:101D5000F5D700D03EAE0CD0FF0E351AFF0E361A66
:101D6000FF0E371A010E3526000E3622000E3722DE
:101D70003EAC0DD0FF0E381AFF0E391AFF0E3A1A7C
:101D8000010E3826000E3922000E3A2200D0000E35
:101D90003E6E355038263650392237503A223AAE08
:101DA0000FD0FF0E381AFF0E391AFF0E3A1A010E25
:101DB0003826000E3922000E3A22010E3E6E00D067
:101DC00038C001F039C002F03AC003F040C004F05E
:101DD0003EC005F0F5EC11F001C035F002C036F060
:101DE00003C037F000D01200760ED36EA0EC15F0D1
:101DF000CEEC15F0920E036E060E046E11EC15F08B
:101E0000400E67EC14F0770E036E060E046E11ECB4
:101E100015F0000E596E000E586E59BE08D059507C
:101E200011E1150E585CD8B00DD001D00BD0820E48
:101E3000576EDE0EE82EFED7572EFCD7584A592A89
:101E4000ECD700D0010ED3EC14F000D0000E5E6E83
:101E5000000E5D6EEDEC15F000D0DEEC15F0000923
:101E6000D8A4FBD7D6EC15F001C05DF002C05EF03F
:101E7000000E1F6EA00E206E400E216E5DC009F098
:101E80005EC00AF05AEC15F009C01CF00AC01DF043
:101E90000BC01EF095EC10F01CC032F01DC033F0EA
:101EA0001EC034F0000E356E800E366E440E376E56
:101EB00084EC11F032C05AF033C05BF034C05CF0F7
:101EC000830E036E060E046E11EC15F07A0E4A6E48
:101ED000000E4B6E8D0E4C6E060E4D6E5AC04EF0BF
:101EE0005BC04FF05CC050F04CEC03F07A0E036E18
:101EF000000E046E2DEC15F08B0E036E060E046EB4
:101F000011EC15F0020ED3EC14F0A0D700EF00F0A6
:101F100003C007F0086A096A0234073601E3088043
:101F200007500F6E0F50D8A402D05DD078D006C0F5
:101F300007F0086A096A0534073601E3088007508C
:101F40000E6E0E50D8A402D04ED069D0028EFF0E75
:101F50000116FF0E0216000E0316058EFF0E041664
:101F6000FF0E0516000E0616000E0A6E000E0B6E12
:101F7000000E0C6E000E0D6E7F0E0F5E0E50980F51
:101F80000F5E180E0E6ED8900A360B360C360D36D4
:101F90000450015C0550025806500358D8A007D0E1
:101FA0000450015E0550025A0650035A0A80D89028
:101FB0000136023603360E2EE6D700D00FAE10D013
:101FC0000F50800A970FD8B003D00DD028D000D082
:101FD000D8900D320C320B320A320F3EF9D717D09F
:101FE000170E0F6411D0000E016E000E026E000E6F
:101FF000036E000E046E13D007D0D8900A360B364D
:102000000C360D360F0600D00F50D8A4F6D70AC0F4
:1020100001F00BC002F00CC003F00DC004F0120080
:10202000033404340C6E0C50D8A402D061D07CD0A0
:10203000063407340B6E0B50D8A402D059D074D09C
:10204000038EFF0E0116FF0E0216FF0E0316000E82
:102050000416068EFF0E0416FF0E0516FF0E06165A
:10206000000E0716000E076E000E086E000E096EB9
:10207000000E0A6E7F0E0C5E0B50A00F0C5E200E41
:102080000B6E00D0D8900736083609360A36045051
:10209000015C055002580650035807500458D8A058
:1020A0000AD00450015E0550025A0650035A0750E8
:1020B000045A078000D0D890013602360336043621
:1020C0000B2EE0D700D00CAE10D00C50800A9F0F22
:1020D000D8B003D00DD028D000D0D8900A32093221
:1020E000083207320C3EF9D717D01F0E0C6411D0FE
:1020F000000E016E000E026E000E036E000E046EE6
:1021000013D007D0D8900736083609360A360C06A1
:1021100000D00C50D8A4F6D707C001F008C002F0D8
:1021200009C003F00AC004F012001EC022F0236AA6
:10213000246A1D34223601E323802250256E255067
:10214000D8A402D00ED06CD021C022F0236A246A19
:102150002034223601E3238022502A6E2A50D8A44C
:1021600007D0000E1C6E000E1D6E000E1E6E58D0A5
:102170002A507B0F25261EC02AF021502A1A800ED5
:102180002A161D8E208EFF0E1F16FF0E2016000E23
:102190002116000E266E000E276E000E286E070E0A
:1021A000296E00D01CA007D01F50262620502722C1
:1021B0002150282200D0D8901E321D321C32D890D7
:1021C0001F3620362136292EEDD700D0090E296E74
:1021D00000D01CA007D01F502626205027222150B7
:1021E000282200D0D8901E321D321C32D8902832BE
:1021F00027322632292EEDD700D026C001F027C085
:1022000002F028C003F025C004F02AC005F0F5EC68
:1022100011F001C01CF002C01DF003C01EF000D080
:10222000120003C005F0066A076A0234053601E3AE
:10223000068005500F6E0F50D8A402D039D063D05D
:10224000170E056E01C006F002C007F003C008F0CB
:102250000528096E04D0D890083207320632092EBC
:10226000FAD706500A6E028EFF0E0116FF0E0216F6
:10227000000E031601500B6E02500C6E03500D6ED3
:102280000E6A8E0E0F5E0FAE10D00F50800A8F0FA9
:10229000D8B003D00DD037D000D0D8900E320D3248
:1022A0000C320B320F3EF9D719D0170E0F6411D034
:1022B000000E016E000E026E000E036E000E046E24
:1022C00022D007D0D8900B360C360D360E360F06BE
:1022D00000D00F50D8B402D0F5D700D00A50D8B4EF
:1022E00009D00E1E0D1E0C1E0B6C000E0C220D22B2
:1022F0000E2200D00BC001F00CC002F00DC003F0A4
:102300000EC004F000D0120034C038F0396A3A6AC6
:102310003334383601E3398038503F6E3F50D8A40B
:1023200002D00ED061D037C038F0396A3A6A3634FC
:10233000383601E339803850406E4050D8A407D079
:10234000000E326E000E336E000E346E4DD0000E55
:102350003C6E000E3D6E000E3E6E4050890F3F5E9B
:1023600034C040F03750401A800E4016338EFF0EB6
:102370003216FF0E3316000E3416368EFF0E35164B
:10238000FF0E3616000E3716180E3B6E00D0D89092
:102390003C363D363E363550325C36503358375039
:1023A0003458D8A007D03550325E3650335A3750A3
:1023B000345A3C80D8903236333634363B2EE7D709
:1023C00000D03CC001F03DC002F03EC003F03FC071
:1023D00004F040C005F0F5EC11F001C032F002C08D
:1023E00033F003C034F000D012000450D8B405D04C
:1023F000015002100310D8A40ED0000E016E000E82
:10240000026E000E036E53D006D0042AD890033219
:102410000232013200D0000E0114066E000E0214CA
:10242000076EFE0E0314086E065007100810D8B48D
:102430000ED0EBD70CD0042A010E0126000E02228A
:10244000000E0322D89003320232013200D0000E77
:102450000114066E000E0214076EFF0E0314086EC0
:10246000065007100810D8B408D0E5D706D00406E7
:10247000D89001360236033600D002BE04D0020ED8
:102480000460F5D700D004B002D0029E00D0D890EE
:102490000432045003120550D8B402D0038E00D089
:1024A00001C001F002C002F003C003F000D012002E
:1024B000066EF00E8116F00E9316939C939A9398E5
:1024C0008A9C8A9A8A98E5EC15F0300ED3EC14F0C9
:1024D000050EB0EC15F0300ED3EC14F0010EB0EC9C
:1024E00015F0320ED3EC14F000D0F3EC14F0000928
:1024F000D8B402D0FAD700D0F3EC14F00009D8A475
:10250000FBD70650D3EC14F000D0F3EC14F0000924
:10251000D8A4FBD7080ED3EC14F000D0F3EC14F0E1
:102520000009D8A4FBD70F0ED3EC14F000D0F3ECC5
:1025300014F00009D8A4FBD7010ED3EC14F000D09E
:10254000F3EC14F00009D8A4FBD7040ED3EC14F07C
:1025500000D0F3EC14F00009D8A4FBD7800E67EC90
:1025600014F000D01200000E0C6E0AAE07D0096CF9
:102570000A1ED8B00A2A010E0C6E00D008AE07D091
:10258000076C081ED8B0082A010E0C1A00D0000EE5
:102590000E6E000E0D6E09500A10D8B421D0010E37
:1025A0000B6E05D0D89009360A360B2A00D00ABE29
:1025B00002D0F8D700D0D8900D360E360950075CFF
:1025C0000A500858D8A006D00950075E0A50085A89
:1025D0000D8000D0D8900A3209320B2EECD700D0F3
:1025E0000C50D8B405D00D6C0E1ED8B00E2A00D0F9
:1025F0000DC007F00EC008F000D0120043AE17D097
:1026000041C047F042C048F043C049F0471E481E51
:10261000491E472A000E48224922000E4724416ED7
:10262000000E4820426E800E4920436E00D046AE18
:1026300017D044C047F045C048F046C049F0471E97
:10264000481E491E472A000E48224922000E4724F0
:10265000446E000E4820456E800E4920466E00D024
:10266000000E411A000E421A800E431A000E441A40
:10267000000E451A800E461A4450415C455042589F
:1026800046504358D8B002D0D89002D0D88000D05D
:102690001200000E096E000E0A6E000E0B6E000E88
:1026A0000C6E0550061007100810D8B42FD0010E7C
:1026B0000D6E07D0D89005360636073608360D2A37
:1026C00000D008BE02D0F6D700D0D89009360A361E
:1026D0000B360C360550015C065002580750035863
:1026E00008500458D8A00AD00550015E0650025A7E
:1026F0000750035A0850045A098000D0D890083275
:102700000732063205320D2EE0D700D009C001F0A5
:102710000AC002F00BC003F00CC004F01200000E5F
:10272000066E02AE07D0016C021ED8B0022A010E5E
:10273000066E00D004AE05D0036C041ED8B0042A87
:1027400000D003500410D8B41DD0010E056E05D082
:10275000D89003360436052A00D004BE02D0F8D73C
:1027600000D00350015C04500258D8A005D003509B
:10277000015E0450025A00D0D89004320332052E74
:10278000F0D700D00650D8B405D0016C021ED8B0E6
:10279000022A00D001C001F002C002F000D01200F5
:1027A0000550061007100810D8B429D0010E096E84
:1027B00007D0D8900536063607360836092A00D0E5
:1027C00008BE02D0F6D700D00550015C0650025872
:1027D0000750035808500458D8A009D00550015E8E
:1027E0000650025A0750035A0850045A00D0D89095
:1027F0000832073206320532092EE6D700D001C072
:1028000001F002C002F003C003F004C004F01200A3
:102810008E0E186E07D0D890133212321132103249
:10282000182A00D0000E1014146E000E1114156E2C
:10283000000E1214166EFF0E1314176E145015109E
:1028400016101710D8A4E7D710C001F011C002F07D
:1028500012C003F018C004F0000E056EF5EC11F084
:1028600001C010F002C011F003C012F000D012003D
:10287000056E000EC26E000EC06ED89001303C0B8B
:10288000C26E01C003F0033AF00E0316300E0316B9
:1028900002500F0B0310C16E05C003F0D890033631
:1028A000D8900336380E031605C004F0043A0F0E14
:1028B0000416070E04160550800B04100310C06E9A
:1028C00001AE03D09E9C9D8CF28CC2801200056EDE
:1028D000F00E9316F00E81160550026E036A028EFA
:1028E000040E046E033403320232042EFBD702506E
:1028F0000F0B81128A9C8A9AE9EC15F08A88E9EC20
:1029000015F08A98F00E811605500F0B8112E9EC34
:1029100015F08A88E9EC15F08A980F0E931200D012
:102920001200445045104610D8B407D0000E441A87
:10293000000E451A800E461A00D041C035F042C044
:1029400036F043C037F044C038F045C039F046C0D7
:102950003AF012EC0EF035C041F036C042F037C00C
:1029600043F000D01200026EF00E9316F00E8116A6
:1029700002380F0B0F0B81128A8A8A9CE9EC15F042
:102980008A88E9EC15F08A98F00E811602500F0B38
:102990008112E9EC15F08A88E9EC15F08A980F0E9F
:1029A000931200D01200026EF00E9316F00E8116F4
:1029B00002380F0B0F0B81128A9C8A9AE9EC15F0F2
:1029C0008A88E9EC15F08A98F00E811602500F0BF8
:1029D0008112E9EC15F08A88E9EC15F08A980F0E5F
:1029E000931200D012008A8C8A9AE9EC15F08A883A
:1029F000E9EC15F081A60AD08A98E9EC15F08A88EE
:102A0000E9EC15F08A988A9C010E0AD08A98E9ECC4
:102A100015F08A88E9EC15F08A988A9C000E00D09F
:102A2000120011D000D0F3EC14F00009D8A4FBD7A9
:102A300003C0F6FF04C0F7FF0800F550B3EC14F034
:102A4000034A042A00D003C0F6FF04C0F7FF0800C1
:102A5000F5500009D8A4E7D7120010D000D0F3EC4D
:102A600014F00009D8A4FBD703C0D9FF04C0DAFFD3
:102A7000DF50B3EC14F0034A042A00D003C0D9FF9E
:102A800004C0DAFFDF50D8A4EAD712000F501102B9
:102A9000F3CF13F0F4CF14F00F501202F3501426BA
:102AA00010501102F350142613C00FF014C010F090
:102AB00000D0120009C001F00AC002F0036A8E0EB5
:102AC000046E000E056EF5EC11F001C009F002C0B5
:102AD0000AF003C00BF000D0120019501A101B109E
:102AE000D8B406D0000E191A000E1A1A800E1B1A3E
:102AF00019C019F01AC01AF01BC01BF01200036EA7
:102B0000000E026E3A0E036006D02F0E036403D04F
:102B1000010E026E00D002C001F0013000D01200A0
:102B200000EE7AF0140EEE6AE806FDE15E6A5D6A78
:102B30005C6A5B6A5A6A000EF86E0001F4EF0EF0F0
:102B4000280E58EC12F000D0F3EC14F00009D8A4D1
:102B5000FBD7060ED3EC14F00C0ED3EC14F01200DD
:102B6000026E0D0E016EFC0EE82EFED7012EFCD774
:102B7000022EF7D700D01200016EFA0E00F0E82EF8
:102B8000FDD7012EFAD700D01200016E030EE82EF9
:102B9000FED700F0012EFAD700D01200040E016E0D
:102BA000FE0E026E830E38EC14F01200C450036E59
:102BB000C350016E03C002F000D01200C2A202D0C6
:102BC000010E02D0000E00D012001E0EBCEC15F05B
:0E2BD0001200140EC5EC15F01200C2821200A5
:020000040020DA
:08000000FFFFFFFFFFFFFFFF00
:020000040030CA
:0E000000FF08191EFF0285FF0FC00FE00F4022
:00000001FF
