:04000000B5EF07F061
:100F6A000001B8EF07F0000E936E000E946E760E35
:100F7A00D36E00D08A708A728A748B708B72000E5C
:100F8A00036E000E026E03BE08D0035014E1140E65
:100F9A00025CD8B010D001D00ED0820E016EDE0EE7
:100FAA00E82EFED7012EFCD7024A032A03BEF5D744
:100FBA00035001E1ECD78A708A728A748B708B7243
:100FCA00000E056E000E046E05BE08D00550D2E173
:100FDA00280E045CD8B0CED701D0CCD7820E016ED1
:100FEA00DE0EE82EFED7012EFCD7044A052AECD7DE
:060FFA00C1D700EF00F07A
:020000040020DA
:08000000FFFFFFFFFFFFFFFF00
:020000040030CA
:0E000000FF0C0D1EFF0385FF0FC00FE00F4029
:00000001FF
