:04000000BFEF07F057
:100F7E000001C2EF07F093909392760ED36E00D0DD
:100F8E008A70000E036E000E026E03BE08D0035070
:100F9E0014E1140E025CD8B010D001D00ED00D0E9C
:100FAE00016EFC0EE82EFED7012EFCD7024A032A54
:100FBE0003BEF5D7035001E1ECD78A72000E056E21
:100FCE00000E046E05BE08D00550DAE1140E045C66
:100FDE00D8B0D6D701D0D4D70D0E016EFC0EE82EA8
:100FEE00FED7012EFCD7044A052AECD7C9D700EF4D
:020FFE0000F001
:020000040020DA
:08000000FFFFFFFFFFFFFFFF00
:020000040030CA
:0E000000FF0C0D1EFF0385FF0FC00FE00F4029
:00000001FF
