:040000000CEF00F011
:10000800FACF02F0FBCF03F0E9CF04F00EED00F0D9
:10001800D5EF00F00600EACF05F0E1CF06F0E2CF19
:1000280007F0D9CF08F0DACF09F0F3CF0AF0F4CF10
:100038000BF0F6CF0CF0F7CF0DF0F8CF0EF0F5CFB0
:100048000FF0F2A250D0000E116E000E106E11BE0D
:1000580008D0115046E10A0E105CD8B042D001D049
:1000680040D08A8A000E136E000E126E13BE08D09E
:10007800135015E1280E125CD8B011D001D00FD062
:10008800410E016EEE0EE82EFED7012EFCD700D0F1
:10009800124A132A13BEF4D7135001E1EBD78A9AF8
:1000A800000E156E000E146E15BE08D0155012E124
:1000B800280E145CD8B00ED001D00CD0410E016EC1
:1000C800EE0EE82EFED7012EFCD700D0144A152AD2
:1000D800EBD700D0104A112A11BEC3D7115001E145
:1000E800BAD7F29200D00FC0F5FF0EC0F8FF0DC0CE
:1000F800F7FF0CC0F6FF0BC0F4FF0AC0F3FF09C0FE
:10010800DAFF08C0D9FF07C0E2FF06C0E1FF05C05B
:10011800EAFF04C0E9FF03C0FBFF02C0FAFF1100B9
:100128000F0E936EF288F19CF292F28E1B9000D023
:100138008A88000E186E000E176E18BE08D0185068
:1001480014E1140E175CD8B010D001D00ED0820E76
:10015800166EDE0EE82EFED7162EFCD7174A182A82
:1001680018BEF5D7185001E1ECD78A98000E1A6E20
:10017800000E196E1ABE08D01A50DAE1140E195C76
:10018800D8B0D6D701D0D4D7820E166EDE0EE82EA0
:10019800FED7162EFCD7194A1A2AECD7C9D70CEF66
:0A01A80000F01B6A000194EF00F064
:020000040020DA
:08000000FFFFFFFFFFFFFFFF00
:020000040030CA
:0E000000FF02191EFF8185FF0FC00FE00F40A9
:00000001FF
