:04000000C9EF07F04D
:100F92000001CCEF07F093909392949494929480F2
:100FA200760ED36E00D082B023D0000E036E000EF8
:100FB200026E03BE08D0035014E1150E025CD8B0D5
:100FC20010D001D00ED00D0E016EFC0EE82EFED711
:100FD200012EFCD7024A032A03BEF5D7035001E1D2
:100FE200ECD782B0E0D78A808A828B828B84DBD76F
:0E0FF2008A908A928B928B94D6D700EF00F0F3
:020000040020DA
:08000000FFFFFFFFFFFFFFFF00
:020000040030CA
:0E000000FF0C0D1EFF0385FF0FC00FE00F4029
:00000001FF
