:0400000053EF05F0C5
:100800000042696C616C204861796465720031391D
:100810002D45452D32320000056EF00E8116F00E8A
:100820009316939C939A93988A9C8A9A8A985AECE6
:1008300005F0300EB1EC04F0050E3EEC05F0300E84
:10084000B1EC04F0010E3EEC05F0320EB1EC04F018
:1008500000D0D1EC04F00009D8B402D0FAD700D00F
:10086000D1EC04F00009D8A4FBD70550B1EC04F09A
:1008700000D0D1EC04F00009D8A4FBD7080EB1ECED
:1008800004F000D0D1EC04F00009D8A4FBD70F0E7F
:10089000B1EC04F000D0D1EC04F00009D8A4FBD7EF
:1008A000010EB1EC04F000D0D1EC04F00009D8A4A2
:1008B000FBD7040EB1EC04F000D0D1EC04F0000939
:1008C000D8A4FBD7800E67EC04F000D01200046EB1
:1008D000F00E9316F00E81160450016E026A018E1E
:1008E000040E036E023402320132032EFBD7015094
:1008F0000F0B81128A9C8A9A2FEC05F08A882FECC4
:1009000005F08A98F00E811604500F0B81122FEC1F
:1009100005F08A882FEC05F08A980F0E931200D00C
:100920001200016EF00E9316F00E811601380F0BB7
:100930000F0B81128A8A8A9C2FEC05F08A882FEC93
:1009400005F08A98F00E811601500F0B81122FECE2
:1009500005F08A882FEC05F08A980F0E931200D0CC
:100960001200016EF00E9316F00E811601380F0B77
:100970000F0B81128A9C8A9A2FEC05F08A882FEC43
:1009800005F08A98F00E811601500F0B81122FECA2
:1009900005F08A882FEC05F08A980F0E931200D08C
:1009A00012008A8C8A9A2FEC05F08A882FEC05F0C9
:1009B00081A60AD08A982FEC05F08A882FEC05F0E2
:1009C0008A988A9C010E0AD08A982FEC05F08A88B2
:1009D0002FEC05F08A988A9C000E00D0120011D0EE
:1009E00000D0D1EC04F00009D8A4FBD702C0F6FF78
:1009F00003C0F7FF0800F55091EC04F0024A032A07
:100A000000D002C0F6FF03C0F7FF0800F550000950
:100A1000D8A4E7D712001FEC05F0010E026E080EF5
:100A2000036EEFEC04F0400E67EC04F00E0E026E65
:100A3000080E036EEFEC04F0FFD700EF00F0280E75
:100A40000CEC04F000D0D1EC04F00009D8A4FBD7E2
:100A5000060EB1EC04F00C0EB1EC04F0120000F044
:100A600000F000F000F000F000F000F000F000F006
:100A700000F000F000F000F000F01200026E0D0E29
:100A8000016EFC0EE82EFED7012EFCD7022EF7D702
:100A900000D01200016EFA0E00F0E82EFDD7012EF4
:100AA000FAD700D01200000EF86E080EF76E0001A3
:0C0AB0000BEF05F01E0E4AEC05F01200E2
:020000040020DA
:08000000FFFFFFFFFFFFFFFF00
:020000040030CA
:0E0000000008191EFF0181FF0FC00FE00F4026
:00000001FF
