:04000000BFEF7FF0DF
:10FF7E000001C2EF7FF093969398760ED36E00D069
:10FF8E008A76000E036E000E026E03BE08D003507A
:10FF9E0014E1C80E025CD8B010D001D00ED0820E83
:10FFAE00016EDE0EE82EFED7012EFCD7024A032A82
:10FFBE0003BEF5D7035001E1ECD78A78000E056E2B
:10FFCE00000E046E05BE08D00550DAE1C80E045CC2
:10FFDE00D8B0D6D701D0D4D7820E016EDE0EE82E61
:10FFEE00FED7012EFCD7044A052AECD7C9D700EF5D
:02FFFE0000F011
:020000040020DA
:08000000FFFFFFFFFFFFFFFF00
:020000040030CA
:0E000000FF091F1EFF0385FF0FC00FE00F401A
:00000001FF
