:0400000054EF02F0C7
:100200000055626169642D75722D5265686D616E6D
:100210000031392D45452D3130000000066EF00EBD
:100220008116F00E9316939C939A93988A9C8A9ABF
:100230008A985BEC02F0300EB3EC01F0050E36EC60
:1002400002F0300EB3EC01F0010E36EC02F0320E8B
:10025000B3EC01F000D0D3EC01F00009D8B402D027
:10026000FAD700D0D3EC01F00009D8A4FBD7065090
:10027000B3EC01F000D0D3EC01F00009D8A4FBD717
:10028000080EB3EC01F000D0D3EC01F00009D8A4C3
:10029000FBD70F0EB3EC01F000D0D3EC01F0000956
:1002A000D8A4FBD7010EB3EC01F000D0D3EC01F0E1
:1002B0000009D8A4FBD7040EB3EC01F000D0D3ECB6
:1002C00001F00009D8A4FBD7800E69EC01F000D042
:1002D0001200056EF00E9316F00E81160550026E98
:1002E000036A028E040E046E033403320232042EBB
:1002F000FBD702500F0B81128A9C8A9A5FEC02F0A6
:100300008A885FEC02F08A98F00E811605500F0B78
:1003100081125FEC02F08A885FEC02F08A980F0E7F
:10032000931200D01200026EF00E9316F00E81169A
:1003300002380F0B0F0B81128A8A8A9C5FEC02F045
:100340008A885FEC02F08A98F00E811602500F0B3B
:1003500081125FEC02F08A885FEC02F08A980F0E3F
:10036000931200D01200026EF00E9316F00E81165A
:1003700002380F0B0F0B81128A9C8A9A5FEC02F0F5
:100380008A885FEC02F08A98F00E811602500F0BFB
:1003900081125FEC02F08A885FEC02F08A980F0EFF
:1003A000931200D012008A8C8A9A5FEC02F08A883D
:1003B0005FEC02F081A60AD08A985FEC02F08A888E
:1003C0005FEC02F08A988A9C010E0AD08A985FEC52
:1003D00002F08A885FEC02F08A988A9C000E00D0B6
:1003E000120011D000D0D3EC01F00009D8A4FBD743
:1003F00003C0F6FF04C0F7FF0800F55093EC01F0CE
:10040000034A042A00D003C0F6FF04C0F7FF080027
:10041000F5500009D8A4E7D71200760ED36E26EC6B
:1004200002F0010E69EC01F0010E036E020E046E83
:10043000F1EC01F0410E69EC01F0110E036E020EB9
:10044000046EF1EC01F0FFD700EF00F0280E0EEC87
:1004500001F000D0D3EC01F00009D8A4FBD7060EC0
:10046000B3EC01F0180EB3EC01F01200026E0D0EA9
:10047000016EFC0EE82EFED7012EFCD7022EF7D718
:1004800000D01200016EFA0E00F0E82EFDD7012E0A
:10049000FAD700D01200016E030EE82EFED700F04E
:1004A000012EFAD700D01200000EF86E020EF76E81
:1004B00000010DEF02F01E0E42EC02F01200140ECD
:0604C0004BEC02F01200FB
:020000040020DA
:08000000FFFFFFFFFFFFFFFF00
:020000040030CA
:0E000000FF080D1EFF0385FF0FC00FE00F402D
:00000001FF
