:04000000C0EF7FF0DE
:10FF80000001C3EF7FF093909480760ED36E00D083
:10FF900082B01AD08A80000E036E000E026E03BE7D
:10FFA00008D00350F5E1280E025CD8B0F1D701D09B
:10FFB000EFD7820E016EDE0EE82EFED7012EFCD7A3
:10FFC000024A032AECD7E4D78A90000E056E000E91
:10FFD000046E05BE08D00550DBE1280E045CD8B0E5
:10FFE000D7D701D0D5D7820E016EDE0EE82EFED710
:10FFF000012EFCD7044A052AECD7CAD700EF00F03F
:020000040020DA
:08000000FFFFFFFFFFFFFFFF00
:020000040030CA
:0E000000FF08191EFF0385FF0FC00FE00F4021
:00000001FF
